:400000000080002011000000710400007104000008B5044B1A6803F53F5302331A6000F02FFA00BFFA46004010B5054C237833B9044B13B10448AFF300800123237010BD64
:400040006881FF1F0000000084200000084B10B51BB108490848AFF300800848036803B910BD074B002BFBD0BDE81040184700BF000000006C81FF1F84200000C880FF1F7A
:400080000000000010B590B062B601F09DFD01F015FE01F005FE01F0F1FC1B220021084600F080F862B60121002000F041FB164801F060FD00F07AFB20B100F071FB08B131
:4000C00000F03AFA00F06CFB0028F0D000F0B4FC0028ECD0684600F0C7FC04460028E6D000F0B6FC0028FBD02146684600F07CFC402CDCD100F0ACFC0028FBD0002108466B
:4001000000F072FCD3E700BF9481FF1F00B583B08DF804108DF805200023022201A901F0DBFD03B05DF804FB08B5024615210020FFF7ECFF08BD00BF30B585B0054604ACF4
:4001400004F8091D02230122214601F0C5FD002301220DF10F01284601F024FE9DF80F0005B030BD08B500F0070242F0180216210020FFF7CBFF08BD08B5890141EAC010C0
:4001800040EA421242EA03139DF8082043EA82019DF80C200A43D2B217210020FFF7B6FF08BD00BF70B582B00E4615466822104B1A7008B169221A7000210D4B1878FFF7B7
:4001C000BBFFC0F34704342C0FD13046FFF7ACFF2846FFF7C7FF012301930020009002460146FFF7C9FF204600E0012002B070BDD981FF1FFEE700BFF0B40022174611E09B
:4002000050F82760F3B226F0FF0608E001EB420511F812406D78A5550132013BDBB2002BF4D101371B2FEBD9F0BC7047064B1B78DBB203F00701054A11701B09013213702F
:400240004422034B1A707047CF0100496E5800407658004008B50A46002101F00AFF08BD38B5344B1D78EDB24FF6FF71324A1180182102321170062102F27E221170F321CF
:400280000A32117003221A708422A3F28F331A700522013B1A70294C04E04FF4F07001F0EBFD013C24B1264B1B7813F0200FF4D0204B1D705222A3F593631A70214B1B78FA
:4002C000DBB2214A13704FF4E162204B1A8041F25122023B1A80002419250CE01C4B1B7803F0010343EA440404F003044FF4F07001F0C2FD013D0DB1032CEFD115B903209D
:40030000FFF778FF134A4FF48073138007231370002311490B7048200231087013700532137002220D4B1A700D4A137843F00103137038BD9846004080400040A086010059
:40034000084300400F010049A14600402242004025420040044000400640004001400040A243004008B501F079FE08BD38B572B62E4A137843F00403137000240CE02C4D2F
:40038000630019194A0011462A44084691882858FFF760FF0134E4B2072CF0D925494FF09040FFF729FF04212348FFF753FF234A137843F0020313701032137843F002036B
:4003C00013701F4C237843F040032370A2F58632513A137843F0100313700A2219491A48FFF7C0FF0A2219491948FFF7BBFF082218491948FFF7B6FF082218491848FFF781
:40040000B1FF184A137843F008031370164D61232B70FFF725FF81232B70FFF707FF0E2221461248FFF79EFF38BD00BFE84600408820000070000048007600400350014037
:40044000A0430040CC010048C0510040D8010048F0510040E401004812510040EC010048225100402243004000480040B043004008B501F0C7FD03680C2B00D1FEE7FEE78A
:4004800008B5104E104D16E029686B68AC68002204E051F8040B43F8040B0432A242F8D1E868002203E0002143F8041B04328242F9D11035013E002EE6D101F0A9FDFFF741
:4004C000E1FDFEE7010000005022000008B5114A114B1A60114A136843F40073136000230AE0032B03D80E4A52F8231000E00D490D4A42F8231001332F2BF2D90B4B1A78BF
:400500000B4B1A70084A0B4B1A60FFF72FFF01F02BFA08BD0004FA050CED00E014ED00E000000000710400000080FF1FBC760040C080FF1F08ED00E0F8B501F0A5FC0746B9
:40054000404A137843F0010313701032137843F00103137001263C4B1E700225943B1D7002F5E2521B32137803F07F031370002001F016FA354C237803F0F9032370344A2E
:40058000137803F0DF031370237833432370304601F006FA282001F003FA2E4B1A7802F07F021A701A7802F0BF021A7023782B432370284601F0F4F9237843F004032370F0
:4005C0000023254A137001321370384601F060FC0721172001F002FA2049172001F0EAF90721182001F0FAF91D49182001F0E2F90721152001F0F2F91A49152001F0DAF962
:400600000721304601F0EAF91749304601F0D2F90721284601F0E2F91449284601F0CAF90721032001F0DAF91149032001F0C2F907210C2001F0D2F90E490C2001F0BAF966
:40064000F8BD00BFA54300409D6000409443004012600040F85100408460004001100000E90D0000FD0F00005D0F00008D0F0000C10F00000910000008B5214B1870002353
:40068000204A1370204A1370204A1370204A1370204A1370204A1370204A1370204B4FF400021A604FF080721A604FF400121A6002221A6004221A6008221A6011B101294D
:4006C00006D00BE0174A137803F0FE0313700AE0144A137843F00103137004E0114A137843F00103137003220F4B1A708022203B1A70012001F0C0FB04220C4B1A7008BD9C
:400700001182FF1F8C82FF1F1682FF1F0982FF1FF481FF1F8D82FF1FF681FF1FF781FF1F00E100E009600040286000401260004038B504460D46064B1B7823B9FFF7FCFE74
:400740000122034B1A7029462046FFF795FF38BD8481FF1F00230A4A13700A4A13700A4A13700A4A13700A4A13700A4A13700A4A13700322094B1A708022203B1A707047C2
:400780008C82FF1F1682FF1F0982FF1FF481FF1F8D82FF1FF681FF1FF781FF1F28600040014B1878704700BF0982FF1F064B1B7813F0FF0F05D0044B1878C0B200221A7039
:4007C00070470020704700BF1682FF1F00EB40008300024A13445878704700BF2082FF1F431EDBB2072B0BD8064B00011A18185C00F00F00537843EA0020023880B270476A
:4008000000207047FC5F0040431EDBB2072B3CD8F0B4074600EB4004A3001C4C2344DB889BB2C3F500739A4208D900EB400293002344DA8892B2C2F5007292B200EB40047F
:40084000A300124C2344DB7843EA1223104D04012E192B55D3B2737039B909E0CE5C3D010C4C665501339BB200E000239A42F5D8420002449300054A134400225A705A79C7
:40088000D2B20001044B1A54F0BC70472082FF1FFC5F004078600040FE5F0040431EDBB2072B0BD8420002449300054A134400225A705A79D2B20001024B1A54704700BF4A
:4008C0002082FF1FFE5F004070B5D9B1054614460E46C8B1082819D8FFF782FFA04203D22846FFF77DFF0446002305E02901094A525CF25401339BB2A342F7D32846FFF7F4
:40090000CDFF04E0002402E0002400E00024204670BD00BF7860004010B4FF2400230EE0094AD25C02EB42029100084A11448A7AD2B2824201D11C4602230133DBB2012BFB
:40094000EED9204610BC7047F081FF1F2082FF1F10B5204C2079FFF7DFFF237813F0800F0ED06378DBB2212B2FD11B4B07221A80C0EBC000194A1044586000F0A3FA10BDBE
:40098000144B5B78DBB2202B02D0222B10D01EE0114A07231380C0EBC00310490B4453600F4A135C43F00103135400F0B3FA10BD084B9B780B4A22F81030094A135C43F075
:4009C0000203135400F03CF910BD002010BD002010BD00BF00600040FC81FF1FCC80FF1FE081FF1FE481FF1F70B506460D460F4B1B780F4AD45CE4B204EB440293000D4A6A
:400A000013441B899BB28B4209D204EB44029300084A13441D89ADB2002000F0BFFF2A4631462046FFF7F0FE70BD00BF8581FF1FEC81FF1F2082FF1F08B5034B1B78034A0B
:400A4000D05CFFF7C3FE08BD8581FF1FDC81FF1F08B5034B1B78034AD05CFFF7B7FE08BD8581FF1FEC81FF1F08B5084B1B78084AD35CDBB203EB43018A0006490A44128954
:400A800092B201461846FFF71FFF08BD8581FF1FDC81FF1F2082FF1FC37803F0030390F9020000280FDA032B06D002F001030B48C15442F001020EE0C2F380030848C15423
:400AC00042F0040207E0032B05D0C2F340030548C15442F002021046704700BFEC81FF1FF081FF1FDC81FF1F1D4B19781D4A13889BB20B449BB2138000220FE01A494B6845
:400B00001B78DBB2194883544B6801334B600132D2B20B889BB2013B9BB20B80124B1B889BB20BB1072AE9D90D4B1B78DBB2082B00D05AB10E490B7883F080030B700F2123
:400B40000C4B197002210C4B197004E0022309490B7009490B70094B1A70014B1A707047F781FF1FF881FF1FFC81FF1F006000401082FF1F0882FF1F8C82FF1FF581FF1F04
:400B80000222074B1A708022064B1A700F22064B1A700023054A1370054A1370012070478C82FF1F1082FF1F0882FF1FF781FF1FF581FF1F08B5FFF797FF08BD10B4194B29
:400BC000197801F00F010239C9B2174A13889BB20B449BB21380002011E0144A5468144B1B5CDBB223705368013353600130C0B20139C9B213889BB2013B9BB213800B4BC0
:400C00001B889BB20BB10029E7D10A4B19700A4A137883F0800313700B22084B1A7010BC704700BF29600040F881FF1FFC81FF1F00600040F581FF1F1082FF1F0882FF1F1E
:400C40000623064A1370064A13708022054B1A700022054B1A700120704700BF8C82FF1F0882FF1F1082FF1FF581FF1F064B9B6843B1054B9A6810709A68044909885180B3
:400C800000229A60704700BFFC81FF1FF881FF1F08B5134B1A78D2B21A701B78DBB213F0800F02D00F4A137008BD0220FFF7DEFF0D4B1B7803F06003202B05D0402B06D0F9
:400CC00043B900F093FC06E001F0E6F803E000F037FE00E0002010B90322024B1A7008BD286000400882FF1F0060004008B5094B1978094A13889BB20B449BB213800022F4
:400D0000064B1A700120FFF7B1FF0322044B1A7008BD00BFF781FF1FF881FF1F8C82FF1F0882FF1F08B50B4B1B78DBB2042B06D0062B07D0022B0BD1FFF7D8FF08BDFFF7BD
:400D40003DFF08BD0320FFF791FF0322024B1A7008BD00BF8C82FF1F0882FF1F08B50022044B1A700120FFF781FF0322024B1A7008BD00BF8C82FF1F0882FF1F08B50B4BBF
:400D80001B7813F0FF0F07D0084A137843F0800307490B70002313700022064B1A700120FFF764FF0322044B1A7008BD8D82FF1F086000408C82FF1F0882FF1F08B5094BC0
:400DC0001B78DBB2042B06D0062B07D0022B07D1FFF7F0FE08BDFFF7C1FF08BDFFF7CEFF08BD00BF8C82FF1F08B5284B1B78DBB213F0100F48D013F0800F0CD003F00F032D
:400E0000012B16D1FFF744FF214B1B7813F0800F11D1012312E013F0400F03D0FFF7CEFF01230BE013F0200F07D0FFF77BFF012304E0002302E0002300E0002323B3134B06
:400E40001B7813F0800F1FD1124B1B78124A12781343124A13701278D2B2934214D10C4B1B78DBB2094A127812F0800F07D1084B1B78DBB2054A1370137803F00F03044AAA
:400E80001278D2B29342EAD108BD00BF286000400882FF1F1082FF1FF581FF1F296000400022064B1A80064B9B682BB1044A916800230B7092685380704700BFF881FF1F97
:400EC000FC81FF1F08B50F4B1B889BB213B9FFF757FE15E002220C4B1A7000220B4B1A70FFF7DEFF0A4AD179937943EA0123054A128892B2934201D2024A1380FFF7F4FDD4
:400F0000012008BDFC81FF1F8C82FF1F1082FF1F0060004008B504220B4B1A7080220B4B1A70FFF7BDFF0A4AD179937943EA0123084A128892B2934201D2064A13800B22DA
:400F4000054B1A70012008BD8C82FF1F1082FF1F00600040FC81FF1F0882FF1F0122094B1A700F3B9B7C084B1B7B03F00303934204D0054AD37B83F08003D3730122024BBC
:400F80005A7370470B6000402082FF1F02220A4B1A700F3B93F82230084B1B7E03F00303012B04D0054AD37E83F08003D3760122024B5A76704700BF0B6000402082FF1F33
:400FC00004220C4B1A700F3B93F832300A4B93F8243003F00303012B06D0074A92F8273083F0800382F827300122034B83F82520704700BF0B6000402082FF1F704700BF03
:4010000008B5FFF7A7FB08BD08B500F0A5FC08BD70B588B0054603AC174E0FCE0FC43368237035B322232B7003236B7001A800F0EDFC002402231AE008AA224412F81C2CF1
:4010400008A901EB121111F8141CE954581C00212954981C02F00F0208AE324412F8142C2A54DA1CA9540134E4B20433DBB2212BE2D908B070BD00BFB820000010B4012390
:401080003EE019461A010C242148845403EB4300820020480244527912F0FF0F13D003EB430082001B480244127912F0800F04D01801194A024494700AE01801164A02444D
:4010C0000820907004E01801134A0244802090704800084482000F480244D488E4B208010B4901448C71D088C0F30720C871D088C0B20871D288C2F307224A710133DBB2E2
:40110000082BBED9FF22054B1A7010BC704700BF706000402082FF1FFC5F00400A600040074B1A78074B03EBC2035B681A7C824204D9C0001030184440687047002070471E
:401140001182FF1FCC200000F8B5404B1B7813F0FF0F79D03D4B18780138C0B2FFF7E0FF047AC2683A4B1878C0B200236AE01178884264D13749095CC9B25578A9425ED1AA
:40118000917801F07F01D67806F00306DFF8C8E04D000D44AF000EEB07054FF0000C85F803C092F802C085F804C092F803C00EF807C097882F8192F90250002D0DDA012E76
:4011C00001D1072700E00D274E000E44B500224E35446F7101266E700CE0012E01D1052700E009274E000E44B5001B4E35446F7100266E70DFF868E00F010EEB0706012519
:40120000B57001FA05F529448D00134929440D89C5F307250EF807500D89EDB27570CE88F6B20E4D3D44AE71CE88C6F30726EE71CE88F6B22E71C988C1F30721697108326E
:401240000133DBB2A34292D3F8BD00BF0982FF1FF481FF1F1C82FF1F2082FF1F70600040FC5F0040034B1A78034B03EBC2035868704700BF1182FF1FCC20000008B5084BC8
:4012800018780138C0B2FFF74BFF30B142681279023200EBC203586808BD002008BD00BF0982FF1F2DE9F047002310E0724D5900CA189600AC190022AA55A270E27022810A
:4012C000A272627034462C4462710133DBB2082BECD940B90AE000226849CA546849CA540133DBB200E00023012BF4D9654B1B7813F0FF0F00F0BD80624B18780138C0B2C9
:40130000FFF70EFF80464368DB7913F0400F05D05D4A137843F00103137004E05A4A137803F0FE03137098F808704FF0000A01266FE0D8F80C50002467E0AB7803F07F0352
:401340009E425FD1314606EB460083004A4803441B899BB2A888834206D206EB460E4FEA8E03454A134418812B784448C35CDBB26878834246D195F802C0DFF8FCE04B0023
:401380000B4498000EEB000383F804C0EB780EF80030EB7803F0030395F90200002813DA012B02D14FF0070901E04FF00D09DFF8C8E04B0003EB010C4FEA8C00704480F837
:4013C00005900121417012E0012B02D14FF0050901E04FF00909DFF8A0E04B0003EB010C4FEA8C00704480F8059000214170AB790A2B01D0022B05D1524631462846FFF780
:401400004BFB824608350134E4B2BC4295D30136F6B2082E8DD9D8F80C0000220CE0837803F07F0310F8084B03EB43039900124B19448C720132D2B2BA42F0D3FFF71EFFF2
:40144000124B1860002301210FE00B4D4A00501884002C44E380228992B213449BB203F0010213449BB20131C9B20829EDD9FFF705FEBDE8F08700BF2082FF1F1C82FF1FE1
:401480001882FF1F0982FF1FF681FF1F0C82FF1F08B5154B1B7903F07F035A1ED2B2072A20D8590019448A0010490A44917841F0010191700021D170517841F002015170FB
:4014C000127912F0800F05D01B01094A1A448D23937004E01B01064A1A4489239370FFF7AFFB08BD002008BD006000402082FF1FFC5F0040274B1B7903F07F035A1ED2B262
:40150000072A44D810B5590019448A0022490A44917801F0FE0191700021D1701F4C1801215C01F07F012154517801F0FD015170127912F0800F13D003EB43018A001649CA
:401540000A445278D2B2012A04D1224602440C23937019E01B01114A1A440D23937013E003EB43018A000C490A445278D2B2012A05D11B01094A1A440823937004E01B0152
:40158000064A1A4409239370FFF75AFB10BD0020704700BF006000402082FF1FFC5F004010B50E4B1C79E4B20D4B18780138C0B2FFF7B6FD43681B799C4201D9022C0AD819
:4015C000084A135DDBB208490B55044B9B78DBB21355012010BD002010BD00BF006000400982FF1F1C82FF1F1882FF1F10B59C4B1B78DBB200219B4A118013F0800F00F058
:40160000AD80974A5278D2B20A2A00F27481DFE812F06900720172017201720172010B007201920072019A008D4BDB78DBB2012B09D1FFF717FE42688A4B5A6012221A80D5
:40164000FFF740FC10BD864BDB78DBB2022B13D1834B9878FFF764FD002800F04E814268804B5A605A68D1785A68927842EA01221A80FFF727FC10BD794BDB78DBB2032BE6
:4016800005D02CE00A7811440133DBB201E000237549734A9278D2B2934203D20A7812F0FF0FEFD16E4B9B7813F0FF0F0BD06C4B9B78DBB26D4A127C934204D16C4C20468C
:4016C000FFF7A6FC21460B7813F0FF0F00F017810B78644A13805160FFF7F4FB10BD00F0DBFB10BD13F0030317D0022B40F009815C490B805A4B1B7903F07F0303EB43032C
:401700009A005C4B1A449278D2B25B4B1A7000225A704B60FFF7D6FB10BD524902230B80564B1A78D2B2544B1A7000225A704B60FFF7C8FB10BD4B4B01221A80504A5A6032
:40174000FFF7C0FB10BD474A01231380444B1B794C490B445360FFF7B5FB10BD404A5278013A0A2A00F2CF80DFE812F04C00CD009800CD000B00CD00CD00CD001300CD00D9
:401780003000374B9B78DBB23F4A1370FFF758FA10BD334B9B7803F0FF041BB1601EC0B2FFF7BEFC04B110B9002C40F0AE80344B1B78DBB29C4206D0314B1C700120334BC1
:4017C0001870FFF76FFDFFF73BFA10BDFFF7E8FE002800F09C80224A1379DBB21279D2B22B490A702B4AD25CD2B22649CB5CDBB29A4204D00122254B1A70FFF7A5FCFFF7D1
:401800001FFA10BD03F00303012B17D04BB1022B7FD1134B9B7813F0FF0F7CD1FFF76AFE10BD0F4B9B78DBB2012B76D1134A137803F0FD031370FFF703FA10BD084B1B79D1
:40184000DBB2012B6BD8064B98781B79DBB21249CA5C22EA0002CA54FFF7F2F910BD00BF00600040FC81FF1F3421000018220000A482FF1F2082FF1F8881FF1FF681FF1F46
:401880000982FF1F1C82FF1F8D82FF1F1682FF1FF481FF1F1882FF1F1482FF1F03F00303012B17D04BB1022B3BD1224B9B7813F0FF0F38D1FFF7ECFD10BD1E4B9B78DBB251
:4018C000012B32D11C4A137843F002031370FFF7B7F910BD174B1B79DBB2012B27D8154B98781B79DBB21549CA5C22EA0002CA54FFF7A6F910BD002010BD002010BD00204F
:4019000010BD002010BD002010BD002010BD002010BD002010BD002010BD002010BD002010BD002010BD002010BD002010BD002010BD00BF00600040F681FF1F1482FF1F16
:40194000044B1B7813F0800F01D0024B5B780020704700BF00600040024B1878C0F38010704700BF8F4500400B4A7F2313708021517007E0DA0002F1804202F5F042013B6B
:40198000DBB21370002BF5D1DB0003F1804303F5F04300221A707047E880FF1F01BE704708B5034B1B7A00FB03F000F065FA08BDF080FF1F70B504460E46074B1D681F28F9
:4019C00002D90020FFF7EAFF04F01F04103455F8240045F8246070BD08ED00E038B504460D46072902D90020FFF7D8FF1F2C02D90020FFF7D3FF04F01F0000F1604000F555
:401A000064406D01EDB2057038BD00BF134B1B78DBB20360124A127843EA02230360114A127843EA024303600F4A127843EA026303600E4B1B78DBB243600D4A127843EA94
:401A4000022343600B4A127843EA024343600A4A127843EA02634360704700BF0301004904010049EC460040020100490101004900010049050100490601004910B500F0DF
:401A80003BFA00F069FA58B9012000F047FA072802D04FF0FF3400E0072400F083FA00E00424204610BD00BF30B583B01D4B1B7813F0020F2BD105461A4B1B789B0828D154
:401AC000184B1B7813F0010F12D0174B1B788DF8043002E00120FFF763FF124B1B7813F0010FF7D0104B1B788DF80530002400E007247CB99DF80430012B03D19DF8053089
:401B00002B8007E09DF805305B422B8002E0102400E00724072C01D000F044FA204603B030BD00BF224700402047004070B50646FFF7A4FF0546072817D112E0072D04D033
:401B40000B4B1B7813F0020F0FD1072D03D13046FFF7AAFF05460A20FFF722FF0A3CA4B201E04FF4FA54002CE8D1284670BD00BF2247004038B50546022406E02846FFF741
:401B8000D5FF034618B9013CE4B2002CF6D1184638BD00BF014B1B681864704708ED00E04001C0B2014B1870704700BF00E400E00122014B1A60704700E100E00122014BF7
:401BC0001A60704780E100E008B5FFF7F7FF0448FFF7E0FF0720FFF7E3FFFFF7E9FF08BDF11B00000122014B1A60704780E200E008B5FFF7F7FF00F017F800F0FBF9B0FAE3
:401C000080F0400900F0EAF908BD00BF024A137843F08003137070477B640040014B1870704700BF8B640040014B1878704700BF6B640040014B1880704700BF546800407E
:401C4000014B188880B2704794680040014B1880704700BF1468004008B501E0FFF7F0FFFFF7E2FF10F0080FF8D108BD08B540F24B40FFF7DFFF40F24B40FFF7E7FF00F067
:401C800003F9064A137843F01003137000F000F9FFF7E2FF0120FFF7C1FF08BD9B64004008B5054B1B7823B9FFF7E0FF0122024B1A70FFF7ABFF08BD8A81FF1F054A137836
:401CC00043F0010313701032137843F001031370704700BFA2430040002948D070B40C4626490978C9B2102906D12549097811F0080F11D1002112E020490978C9B26029EC
:401D00000CD14FF400451F490D601F4D297801F0F7012970002102E0012100E0022149BB4526164D2E700026184D2E70184D2A70184A1460184A1370134C227802F0FD0275
:401D400022704200D2B21548027013F0010F06D012220B4B1A700422023B1A7002E00122074B1A704FF400420D4B1A6002E0022108467047084670BC704700BFC682FF1FBA
:401D8000D949004080E200E0A282FF1F9882FF1FA182FF1F9C82FF1F9082FF1FD849004000E100E000294AD070B40C4627490978C9B2102906D12649097811F0080F11D117
:401DC000002112E021490978C9B260290CD14FF4004520490D60204D297801F0F7012970002102E0012100E0022159BB4926174D2E700026194D2E70194D2A70194A146068
:401E0000194A1370144C227802F0FE0222704200D2B242F001021548027013F0010F06D012220B4B1A700422023B1A7002E00122074B1A704FF400420D4B1A6002E002214D
:401E400008467047084670BC704700BFC682FF1FD949004080E200E0A282FF1FA082FF1F9182FF1F9482FF1F9082FF1FD849004000E100E0000000000230800803D000BFDE
:401E800001380046FCD17047EFF3108072B6704780F31088704700BF08B5144B1B7803F00303012B02D0022B04D00FE00F4B1B79DBB20CE00D4B1B7903F07F0303EB4303BB
:401EC0009A000B4B1A44937ADBB200E00023022B07D8084A1268D35C022B04D1FEF738FD08BD002008BD002008BD00BF006000402082FF1F0C82FF1F08B5FFF7C5FF064AA3
:401F0000137843F0080313701032137843F008031370FFF7BDFF08BDA04300400C4B1B7813F0020F0FD00B4BB6221A70E1221A700E221A7002331B7813F0020F05D1054B4F
:401F4000187007207047042070470920704700BF224700402047004010B5FFF795FF0F4B1B78A3B901220D4B1A700D4B1B6813F0010F0ED00A4A136823F00103136000BFB0
:401F800000BF00BF0122054B5A60002402E0042400E00024FFF77CFF204610BD8C81FF1F0400084008B5FFF76FFF0A4B00221A705B68012B0AD1084A136843F001031360C6
:401FC00000BF00BF00BF0022024B5A60FFF760FF08BD00BF8C81FF1F04000840044A137803F0FB03800000F0040018431070704720510040024B1878C0F38000704700BF24
:4020000021510040014B1868704700BF6081FF1F0E4B70B51E460E4C0025E41AA410A54204D056F8253098470135F8E700F0FEF8084B094C1E46E41AA4100025A54204D0C4
:4020400056F8253098470135F8E770BD3822000038220000382200004022000010B5431E0A44914204D011F8014B03F8014FF8E710BD03460244934202D003F8011BFAE797
:402080007047000000000000C8490040190000510040100030510040400000000140001000140140000800400140000A004C01400002005001402000303132333435363748
:4020C00038394142434445460000000001000000D42000000100000018220000000000000000000001000000EC20000001000000D42100000300000018210000000000006B
:402100000000000000000000000000000000000014210000020A000000008103080002000100820240000A000100030240000A0002030000040309042C034300790070003D
:4021400072006500730073002000530065006D00690063006F006E0064007500630074006F0072001003550053004200550041005200540038034300440043002000430082
:402180006F006D006D0075006E00690063006100740069006F006E00200049006E0074006500720066006100630065002603430044004300200044006100740061002000AE
:4021C00049006E0074006500720066006100630065000000090243000201018032090400000102020103052400100104240202052406000105240100010705810308000AD1
:4022000009040100020A0000040705820240000007050302400000001201000202000008B40432F20100010280014300F8B500BFF8BC08BC9E4670474D000000CD040000FF
:40224000F8B500BFF8BC08BC9E4670472900000060220000C880FF1FA0000000600100000000000000C2010000000800C201000000080000A1200000000002000000000074
:402280007F800000010000000000E02EC05D00001800000000366E0100000000000000000000000000000000000000000000000000000000000000002A22000000000000EA
:4022C00000000000000000000000000000000000000000000000000000000000000000000000000000000000000000000000000000000000000000000081FF1F000000003F
:40230000000000000000000000000000000000000000000000000000000000000000000000000000000000000000000000000000000000000000000000000000000000009D
:40234000000000000000000000000000000000000000000000000000000000000000000000000000000000000000000000000000000000000000000000000000000000005D
:40238000000000000000000000000000000000000000000000000000000000000000000000000000000000000000000000000000000000000000000000000000000000001D
:4023C00000000000000000000000000000000000000000000000000000000000000000000000000000000000000000000000000000000000000000000000000000000000DD
:020000040003F7
:0200000480007A
:40000000014500400352004001640040010101400103014002050140300A0140190B0140010D0140010F0140041501400117014001190140041B01400A400140064101402F
:400040000B42014002430140014401400245014002460140064701400348014012490140074C0140064D014002500140045101407E02600264037C408B0DE204E602E20879
:40008000E608405449FF4AFF4BFF4F0150185A045F016040624064406540668068806A806C806E809201AE01B001BE01C015C5ECC602C807C9FFCAFFCBFFCD83CE03CF0135
:4000C000D018D280D401D604D804DA04DB04DF01E040E240E440E540E680E880EA80EC80EE800F8017801E804280478048014D044F81568057405D045E805F0166026780EF
:400100007401778086028740C210C480D011D218D6D0D880E602E204E008E401EA05EE08EE02EE02E008E401EA05EE0830023380340236403A403E208002CCF0CE30E2206C
:4001400084029C029E60A640A780E64002403E10862087809E60A640A780C010CE20E210E6109610A64082408480964096409C8008800B400E4096409C80C20E9610AE40AB
:40018000EE401220164075027B02822086409902A302AA10AB02AD02C430DC80DE20E010E480EAA0EE10132814207B107F40AF40C40EDE03831087409780A710AB28AC208B
:4001C00000010C0100AB010303C010020300040003000300000000004000000000000000C0000000000B0B0000000000000404000000000000000000000000000000000042
:4002000000000000000000000000000000000000000000000000000000000000000000000000000000000000000000000000000000000000000000000000000000000000BE
:40024000000000000000000000000000000000000000000000000000000000000000000000000000000000000000000000000000000000000000000000000000000000007E
:40028000000000000000000000000000000000000000000000000000000000000000000000000000000000000000000000000000000000000000000000000000000000003E
:4002C00000000000000000000000000000000000000000000000000000000000000000000000000000000000000000000000000000000000000000000000000000000000FE
:0200000490006A
:0400000000004005B7
:0200000490105A
:04000000BC90ACAF55
:0200000490303A
:020000000E45AB
:0200000490402A
:4000000000000000000000000000000000000000000000000000000000000000000000000000000000000000000000000000000000000000000000000000000000000000C0
:400040000000000000000000000000000000000000000000000000000000000000000000000000000000000000000000000000000000000000000000000000000000000080
:400080000000000000000000000000000000000000000000000000000000000000000000000000000000000000000000000000000000000000000000000000000000000040
:4000C0000000000000000000000000000000000000000000000000000000000000000000000000000000000000000000000000000000000000000000000000000000000000
:0200000490501A
:0C00000000012E16106900012E231EAE18
:00000001FF