:400000000080002011000000110900001109000008B5044B1A6803F53F5302331A6000F07FFC00BFFA46004010B5054C237833B9044B13B10448AFF300800123237010BDC8
:400040004885FF1F0000000030100000084B10B51BB108490848AFF300800848036803B910BD074B002BFBD0BDE81040184700BF000000004C85FF1F30100000C880FF1F7A
:400080000000000000B583B062B63C2000F0FAFA62B600F009FA00F029FA0123009314231A460A21084600F077FA00F01FFA4FF4487000F0D3FC00F0A3FC024800F0ACFC86
:4000C000FEE700BFC900000008B500F0BFFC18B1002000F0AFFC02E0012000F0ABFC4FF47A7000F0BBFC00F075FC08BD83B27F2B3CD800293ADB3F2938DC012A03D09AB11D
:40010000022A23D070471A4A0B46002900DACB1DDB1000EBC31001F00701012303FA01F1135C194311547047114A0B46002900DACB1DDB1000EBC31001F00701012303FA53
:4001400001F1135C23EA010111547047084A0B46002900DACB1DDB1000EBC31001F00701012303FA01F1135C59401154704700BFCD80FF1FF0B5BDF81440904267D10D4657
:40018000002900DACD1DED1000EBC510444F07441846002B00DAD81DC01002EBC012404810443A4650E0BA4218D13E4D0D4003D5013D65F007050135EEB2F5186D1AEDB207
:4001C000062D00D90725AD1B01354FF0010E0EFA05F5013D05FA06F6F6B20EE082420CD1304D1D4003D5013D65F0070501352DB2012606FA05F56E1EF6B2BA4201D08242BD
:4002000012D1012C03D034B1022C09D01BE015783543157017E0157825EA0605157012E01578754015700EE0012C03D02CB1022C06D008E0FF25157005E00025157002E0BD
:400240001578ED43157080328242ACD9F0BD0B46002900DACB1DDB1000EBC313104D2B44121A1A4401F00701012000FA01F1CDB212E0012C03D034B1022C09D00BE0187878
:400280002843187007E0187820EA0100187002E018786840187001339342EAD9F0BD00BFCD80FF1F07000080B1F90020154B1B78022B0CD0032B19D0012B21D1B0F90030A1
:4002C0000B80114B1B889A1A013A02807047B0F900200D4B1B889B1A013B0380B1F900200A4B1B889B1A013B0B80704710B4B0F90040064B1B881B1B013B0B80028010BC33
:40030000704700BF7885FF1F7685FF1F7A85FF1F10B584B0ADF80E00ADF80C10ADF80A20ADF80830904203D009B21BB2994271D1394B1B78012B01D0032B1AD1002869DBFA
:40034000364BB3F90030984264DA002A62DB9A4260DABDF90C30002B5CDB314AB2F90020934257DABDF90830002B53DB9A421ADC50E0BDF90C30002B4CDB2849B1F9001033
:400380008B4247DABDF90830002B43DB994241DD00283FDB224BB3F9003098423ADA002A38DB9A4236DA03A90DF10E00FFF77CFF02A90DF10A00FFF777FFBDF90E30BDF98B
:4003C0000A20934205D1BDF90800BDF90C10884207DBBDF90C00BDF9081088420DD193420BDDADF80E20ADF80A30BDF90C30BDF80820ADF80C20ADF80830BDF90830BDF924
:400400000A20BDF90C10BDF90E00BDF818400094FFF7B0FE04B010BD7885FF1F7A85FF1F7685FF1FF8B505460F464FF400420E4B1A6000210D4B187800F020FD48B10DE044
:400440006E1C287800F076FD30B90134A4B2354600E00024BC42F3D300F050FD4FF40042034B1A600020F8BD80E100E06485FF1F00E100E010F0800F14D100B583B0002351
:400480008DF80430030943F010038DF8053000F00F008DF80600032101A8FFF7C3FF03B05DF804FB704700BF10B5054C4FF480620021601C00F0B3FD4023237010BD00BFF1
:4004C000CC80FF1F07280FD800B583B000238DF8043060F04F008DF80500022101A8FFF7A1FF03B05DF804FB704700BF08B50020FFF7E8FF0020FFF7BDFF40F20141024866
:40050000FFF790FF08BD00BFCC80FF1F0A4B18800A4B19800A4B58809980002209490A70DA801A8101229A724FF6FF719981D981054B1A70704700BF7685FF1F7A85FF1F66
:400540006485FF1F7885FF1F7C85FF1F10B582B0ADF80600ADF80410002819DB0D4BB3F90230984214DA0BB2002B11DB0949B1F904108B420CDA144601A90DF10600FFF730
:4005800093FE2246BDF90410BDF90600FFF7AEFD02B010BD6485FF1F2DE9F04F85B005460E461746BDF838200292B84201D0994207D1029A00923A4631462846FFF7A8FEC1
:4005C00052E0C1EB0308B8F1000FB8BFC8F10008C0EB0709B9F1000FB8BFC9F10009C84504DD3A461F4613460D460646BD4205DD32461E4613462A463D461746C5EB070B81
:400600001FFA8BFB0FFA8BF4C6EB030ABAF1000FB8BFCAF1000A04EBD47464109E4202DA012303931EE04FF0FF3303931AE0C84505DD029A29463046FFF788FF04E0029A52
:4006400031462846FFF782FFCAEB0404A3B21CB2002C05DA039A164436B20BEB030424B201352DB2BD42E2DD05B0BDE8F08F00BF08B518B1002000F033FA08BD012000F07D
:400680002FFA08BD30B589B0044600F069FA00F079FA134B1C7040218020FFF737FF0120FFF7E6FF4FF4FA7000F0D8F90020FFF7DFFF4FF4487000F0D1F96C46094D28686C
:4006C0006968AA68EB680FC428696969AA69EB690FC420216846FFF7A5FE09B030BD00BF6485FF1F30150000FEE700BFF0B40022174611E050F82760F3B226F0FF0608E0EC
:4007000001EB420511F812406D78A5550132013BDBB2002BF4D10137152FEBD9F0BC7047064B1B78DBB203F00701054A11701B09013213704422034B1A707047CF01004999
:400740006E5800407658004008B50A46002100F066FC08BD38B51925234B1D80182202331A70022203F27E231A7008224FF040231A70032103F5007319701C4B1B78DBB2B8
:400780001B490B701B4B1A8041F25122023B1A8000240CE0184B1B7803F0010343EA440404F003044FF4F07000F0F2FB013D0DB1032CEFD115B90320FFF796FF0F4B4FF4EC
:4007C00080721A8007221A7000220D490A704820023108701A700222033B1A70094A137843F00103137038BD8040004008010049A14600402242004025420040044000406A
:4008000006400040A243004008B500F0FDFB08BD38B572B62D4A137843F00403137000240CE02B4D630019194A0011462A44084691882858FFF788FF0134E4B2092CF0D976
:4008400024494FF09040FFF751FF234A137843F0020313701032137843F0020313701F4C237843F040032370A2F58632513A137843F010031370082219491A48FFF7C4FF97
:400880000A2219491948FFF7BFFF0A2218491948FFF7BAFF082218491848FFF7B5FF184A137843F008031370164D61232B70FFF751FF81232B700122134B1A70FFF730FF7E
:4008C0000E2221461148FFF79FFF38BDE8460040501500005800004803500140A043004064030048C25100406C0300481051004078030048405100408403004862510040A5
:40090000224300400048004004000840B043004008B500F04DFB03680C2B00D1FEE7FEE708B5104E104D16E029686B68AC68002204E051F8040B43F8040B0432A242F8D168
:40094000E868002203E0002143F8041B04328242F9D11035013E002EE6D100F02FFBFFF791FBFEE701000000B415000008B5104A104B1A60104A136843F40073136000232E
:400980000AE0032B03D80D4A52F8231000E00C490C4A42F8231001332F2BF2D90A4B1A780A4B1A70074A0A4B1A60FFF731FF08BD0004FA050CED00E014ED00E00000000091
:4009C000110900000080FF1FBC760040C080FF1F08ED00E0024B1878C0F38000704700BF81450040014B1B685865704708ED00E04001C0B2014B1870704700BF05E400E030
:400A00002022014B1A60704700E100E02022014B1A60704780E100E010B50446FFF7F6FF2046FFF7DFFF0720FFF7E2FFFFF7E8FF10BD00BF044A137803F07F03C001C0B21A
:400A400018431070704700BF60510040014B1878C00970476151004001BE704710B5044605E0084B186800F093FAA4F50044B4F5004FF6D8034B586800FB04F000F088FA1A
:400A800010BD00BFD084FF1F70B504460E46074B1D681F2802D90020FFF7DEFF04F01F04103455F8240045F8246070BD08ED00E038B504460D46072902D90020FFF7CCFF84
:400AC0001F2C02D90020FFF7C7FF04F01F0000F1604000F564406D01EDB2057038BD00BF044A137803F0FB03800000F00400184310707047C051004038B50222114B1A7069
:400B000081220E3B1A70082202331A700F2511331D70002401331C704FF400420A4B1A6007212846FFF7C4FF08492846FFF7ACFF1022074B1A70074B1C70074B1C70074B4E
:400B40001C7038BDD649004080E100E0AD0B00007D85FF1F8285FF1F8485FF1F8085FF1F08B500F01DFA064A137843F0040313701032137843F00403137000F015FA08BD63
:400B8000A543004008B5074B1B7823B9FFF7B4FF0122044B1A70FFF7E3FF4FF40042024B1A6008BD7485FF1F00E100E038B5A54B1C78A54B1B7813F0400F00F03A81E4B2A2
:400BC00014F0010F00F01D819F4B1B78453B052B00F21481DFE813F006008200120112010600DF0004F0DF0504F00A04082C42D1954B1B78DBB2452B35D1944B1B7813F036
:400C0000FF0F10D0924B1B681B78DBB2914A137004228C4B1A7001228F4B1A7046228A4B1A702C46EDE08D4B1B7813F0020F0DD08B4A137843F00A0313706022824B1A707C
:400C40004FF40042874B1A602C46DAE0864A137843F0100313701022844B1A700422023B1A702C46CDE00022764B1A704A22764B1A702C46C5E00A2C2BD1794A137843F0CE
:400C8000A0031370754B1B7813F0020F14D06E4B1B7813F0080F01D0092300E00A23704A11780B4313706022674B1A704FF400426C4B1A602C46A4E06B4A137843F010034F
:400CC00013701022694B1A700422023B1A702C4697E00020FFF7C0FE2C4692E014F0020F36D15D4B1A78D2B2584B1B78DBB29A4210D2594A1378DBB255490968CB5CDBB29A
:400D000054490B7004214F4B197013780133DBB2137076E0514B1B7813F0020F0CD0504A137843F00A0313706022474B1A704FF400424C4B1A6064E04B4A137843F0100349
:400D400013701022494B1A700422023B1A7058E0424B1B7813F0020F0CD0414A137843F09A0313706022384B1A704FF400423D4B1A6046E03C4A137843F0100313701022BA
:400D80003A4B1A700422023B1A70354A137843F09003137035E0364A1378DBB2354908682C490978C9B2C15413780133DBB213701278D2B2304B1B78DBB29A4203D2102268
:400DC000204B1A701DE0254B1B7813F0020F0CD0234A137843F00903137060221A4B1A704FF400421F4B1A600BE01F4A137843F0100313700022134B1A7002E00020FFF7D0
:400E00002BFE14F0200F1CD00F4B1B7813F0080F01D0012300E00223114A11780B431370114A137803F0EF0313701022064B1A7038BD054B1B7813F0100F02D11022024B0D
:400E40001A7038BDD74900407D85FF1F8385FF1F8885FF1FD84900408085FF1F8185FF1F8285FF1F80E100E0D6490040D94900408485FF1F8C85FF1F9085FF1F1A4B1B78D2
:400E8000DBB2102B29D1194B1B7813F0080F26D14FF40042164B1A604000C0B229B140F001004922104B1A7002E045220E4B1A70104B1870012201331A700F4B1B7813F01B
:400EC000010FFAD00C4B1B7803F00A030A2B08D11022054B1A700320704702207047012070470020704700BF7D85FF1FD949004080E100E0D8490040D74900400A4B1B7887
:400F000013F0040F0ED01023074A13700421023A1170064A1370064B1B7813F0210FFAD00020704702207047D94900407D85FF1FD7490040114B1B7813F0040F1BD0104B43
:400F400018700422013B1A7046220E4B1A700E4B1B7813F0010FFAD00B4B1B7813F0020F04D16022074B1A70002070476022054B1A70032070470220704700BFD9490040B2
:400F8000D84900407D85FF1FD7490040000000000230800803D000BF01380046FCD17047EFF3108072B6704780F31088704700BF014B1868704700BF4085FF1F0E4B70B58C
:400FC0001E460E4C0025E41AA410A54204D056F8253098470135F8E700F0DAFA084B094C1E46E41AA4100025A54204D056F8253098470135F8E770BD9C1500009C15000082
:401000009C150000A415000010B5431E0A44914204D011F8014B03F8014FF8E710BD03460244934202D003F8011BFAE7704700000000000000000000003E5B4F5B3E3E6BD0
:401040004F6B3E1C3E7C3E1C183C7E3C181C577D571C1C5E7F5E1C00183C1800FFE7C3E7FF0018241800FFE7DBE7FF30483A060E2629792926407F050507407F05253F5A27
:401080003CE73C5A7F3E1C1C08081C1C3E7F14227F22145F5F005F5F06097F017F006689956A606060606094A2FFA29408047E040810207E201008082A1C08081C2A08089F
:4010C0001E101010100C1E0C1E0C30383E3830060E3E0E06000000000000005F00000007000700147F147F14242A7F2A12231308646236495620500008070300001C224134
:40110000000041221C002A1C7F1C2A08083E080800807030000808080808000060600020100804023E5149453E00427F400072494949462141494D331814127F10274545E9
:4011400045393C4A49493141211109073649494936464949291E0000140000004034000000081422411414141414004122140802015909063E415D594E7C1211127C7F49F2
:401180004949363E414141227F4141413E7F494949417F090909013E414151737F0808087F00417F41002040413F017F081422417F404040407F021C027F7F0408107F3E1F
:4011C0004141413E7F090909063E4151215E7F09192946264949493203017F01033F4040403F1F2040201F3F4038403F631408146303047804036159494D43007F414141B2
:401200000204081020004141417F04020102044040404040000307080020545478407F284444383844444428384444287F385454541800087E090218A4A49C787F08040475
:401240007800447D40002040403D007F1028440000417F40007C047804787C080404783844444438FC1824241818242418FC7C08040408485454542404043F44243C40401A
:40128000207C1C2040201C3C4030403C44281028444C9090907C4464544C4400083641000000770000004136080002010204023C2623263C1EA1A161123A4040207A3854AC
:4012C00054555921555579412254547842215554784020545579400C1E5272123955555559395454545939555454580000457C410002457D420001457C407D1211127DF009
:40130000282528F07C545545002054547C547C0A097F4932494949323A4444443A324A4848303A4141217A3A42402078009DA0A07D3D4242423D3D4040403D3C24FF24240E
:40134000487E4943662B2FFC2F2BFF0929F620C0887E090320545479410000447D413048484A32384040227A007A0A0A727D0D19317D2629292F28262929292630484D40EC
:4013800020380808080808080808382F10C8ACBA2F102834FA00007B000008142A142222142A1408AA005500AAAA55AA55AA000000FF00101010FF00141414FF001010FF0F
:4013C00000FF1010F010F0141414FC001414F700FF0000FF00FF1414F404FC141417101F10101F101F1414141F00101010F0000000001F101010101F10101010F010000059
:4014000000FF101010101010101010FF10000000FF140000FF00FF00001F10170000FC04F414141710171414F404F40000FF00F714141414141414F700F714141417141062
:40144000101F101F141414F4141010F010F000001F101F0000001F14000000FC140000F010F01010FF10FF141414FF141010101F00000000F010FFFFFFFFFFF0F0F0F0F0C2
:40148000FFFFFF0000000000FFFF0F0F0F0F0F3844443844FC4A4A4A347E02020606027E027E0263554941633844443C04407E201E2006027E020299A5E7A5991C2A492AA5
:4014C0001C4C7201724C304A4D4D303048784830BC625A463D3E494949007E0101017E2A2A2A2A2A44445F444440514A444040444A51400000FF0103E080FF000008086BB8
:401500006B083612362436060F090F06000018180000001010003040FF0101001F01011E00191D1712003C3C3C3C00000000000000AED580A83FD3004021007F2200078D8B
:4015400014DA12817FD9F1DB40A4A6AF2000A1C8C84900401900005100401000205100402000505100401000F0510040100000000140001000140140000800400140000A6D
:40158000004C0140000200500140200043000000F8B500BFF8BC08BC9E4670474D0000006D090000F8B500BFF8BC08BC9E46704729000000C8150000C880FF1F80040000F7
:4015C000500000000000000000000000400000000000000000000000000000000000000000000000000000000000000000000000000000000000000000000000000000005B
:4016000000000000000000000000000000000000000000000000000000000000000000000000000000000000000000000000000000000000000000000000000000000000AA
:40164000000000000000000000000000000000000000000000000000000000000000000000000000000000000000000000000000000000000000000000000000000000006A
:40168000000000000000000000000000000000000000000000000000000000000000000000000000000000000000000000000000000000000000000000000000000000002A
:4016C00000000000000000000000000000000000000000000000000000000000000000000000000000000000000000000000000000000000000000000000000000000000EA
:4017000000000000000000000000000000000000000000000000000000000000000000000000000000000000000000000000000000000000000000000000000000000000A9
:401740000000000000000000000000000000000000000000000000000000000000000000000000000000000000000000000000000000000000000000000000000000000069
:401780000000000000000000000000000000000000000000000000000000000000000000000000000000000000000000000000000000000000000000000000000000000029
:4017C00000000000000000000000000000000000000000000000000000000000000000000000000000000000000000000000000000000000000000000000000000000000E9
:4018000000000000000000000000000000000000000000000000000000000000000000000000000000000000000000000000000000000000000000000000000000000000A8
:401840000000000000000000000000000000000000000000000000000000000000000000000000000000000000000000000000000000000000000000000000000000000068
:401880000000000000000000000000000000000000000000000000000000000000000000000000000000000000000000000000000000000000000000000000000000000028
:4018C00000000000000000000000000000000000000000000000000000000000000000000000000000000000000000000000000000000000000000000000000000000000E8
:4019000000000000000000000000000000000000000000000000000000000000000000000000000000000000000000000000000000000000000000000000000000000000A7
:401940000000000000000000000000000000000000000000000000000000000000000000000000000000000000000000000000000000000000000000000000000000000067
:401980000000000000000000000000000000000000000000000000000000000000000000000000000000000000000000000000000000000000000000000000000000000027
:4019C000000000000000000000000000000000000000E02EC05D00001800000000366E010000000000000000000000000000000000000000000000000000000000000000FF
:401A00008C15000000000000000000000000000000000000000000000000000000000000000000000000000000000000000000000000000000000000000000000000000005
:401A4000E084FF1F000000000000000000000000000000000000000000000000000000000000000000000000000000000000000000000000000000000000000000000000E4
:401A80000000000000000000000000000000000000000000000000000000000000000000000000000000000000000000000000000000000000000000000000000000000026
:401AC00000000000000000000000000000000000000000000000000000000000000000000000000000000000000000000000000000000000000000000000000000000000E6
:401B000000000000000000000000000000000000000000000000000000000000000000000000000000000000000000000000000000000000000000000000000000000000A5
:401B40000000000000000000000000000000000000000000000000000000000000000000000000000000000000000000000000000000000000000000000000000000000065
:020000040003F7
:0200000480007A
:400000000145004002520040036400405D00014037010140650201404C03014003050140031501400117014001190140031B014004400140034101400442014001430140E5
:400040000348014010490140084C0140054D014002500140015101400A022401600280728238830F0010052C074309800B130C240E4210481222130C1571170E1B082002EE
:40008000220C246F25712706286F2C01306031C03210330F34013530360E39223B083E043F104002450449FF4A074BFF4C404D204EF04F05500856025713580459045A04BC
:4000C0005B045F01604061A86240632080E781088218841C850486E288448B238D028E0490809103950196E39808990C9CFF9D339F0CA010A41CA53FA6E1A818A91FAB2081
:40010000ACC0AD3CAF03B01FB10FB238B32CB6C0B710BA0ABB02BF40D804D904DF010281044007580A400E400F2610281140124014021620172219441A401B101E021F0A8C
:400140002024210422012504260A2741280229482A402E202F2A3108322134023768382039083E403F2540044A205010521053105B0168286940732783128721C0F9C2F8F8
:40018000C4FFCA72CCF7CEF6D004D60101020A080E02110112041A081B01250126052B013001310232083301360639083A203E443F01405641024203440145CE480349FF92
:4001C0004AFF4BFF4C624DA04EF04F41500C5418580459045A045B045F016640670269106A306B106D106E106F1280038214841385DC860C8722880A8A148B208F039413EC
:40020000950C9604977199109B409D099E089FD0A114A220A510A615A7ACAA20B020B20FB3E0B610B71FBA08BB08BE41C026C103C5E0C60CC7B0C826C9FFCAFFCBFFCEF055
:40024000CF44D00CD401D804D904DA04DB04DF01E6C0EA40EB0200240108024004100540084009080A020E400F0810801218170819881B011C401DA01F2420022148241064
:40028000274029082A012F283040310832203602371039883B203C024004410845A449024A804B204C804E024F2852415380582059865E02630367099108924293209440E0
:4002C00099449A109B189D08A010A104A22BA318A508A680A720AA01AB08C0CEC255C42ECA63CCAECE8ED076D234D68FD830AB40B020B380E008E401EA05E604E604E00891
:40030000E401EA0503105B02C010D6409F02AB10E8203E10AB02CE20EE80961080019610E62012201640700177108220864090029B10AA10AB10C430DC80DE20E010E480C9
:40034000EAA01280132017087B107F408280C40EDE03831087409780A710AB280001080103C0000000040700030000000400000F0B0000000000000020000120200020009B
:40038000000000000080800000000000000000000000000000000000000000000000000000000000000000000000000000000000000000000000000000000000000000003D
:4003C00000000000000000000000000000000000000000000000000000000000000000000000000000000000000000000000000000000000000000000000000000000000FD
:4004000000000000000000000000000000000000000000000000000000000000000000000000000000000000000000000000000000000000000000000000000000000000BC
:40044000000000000000000000000000000000000000000000000000000000000000000000000000000000000000000000000000000000000000000000000000000000007C
:40048000000000000000000000000000000000000000000000000000000000000000000000000000000000000000000000000000000000000000000000000000000000003C
:0200000490006A
:0400000000004005B7
:0200000490105A
:04000000BC90ACAF55
:0200000490303A
:020000004FA906
:0200000490402A
:4000000000000000000000000000000000000000000000000000000000000000000000000000000000000000000000000000000000000000000000000000000000000000C0
:400040000000000000000000000000000000000000000000000000000000000000000000000000000000000000000000000000000000000000000000000000000000000080
:400080000000000000000000000000000000000000000000000000000000000000000000000000000000000000000000000000000000000000000000000000000000000040
:4000C0000000000000000000000000000000000000000000000000000000000000000000000000000000000000000000000000000000000000000000000000000000000000
:0200000490501A
:0C00000000012E16006900012E1E501297
:00000001FF